{
  "contractName": "StorageState",
  "abi": [
    {
      "constant": true,
      "inputs": [],
      "name": "voterStorage",
      "outputs": [
        {
          "name": "",
          "type": "address"
        }
      ],
      "payable": false,
      "stateMutability": "view",
      "type": "function"
    },
    {
      "constant": true,
      "inputs": [],
      "name": "candidateStorage",
      "outputs": [
        {
          "name": "",
          "type": "address"
        }
      ],
      "payable": false,
      "stateMutability": "view",
      "type": "function"
    }
  ],
  "bytecode": "0x608060405234801561001057600080fd5b5060fe8061001f6000396000f3fe60806040526004361060485763ffffffff7c010000000000000000000000000000000000000000000000000000000060003504166395c562cb8114604d5780639de5d621146088575b600080fd5b348015605857600080fd5b50605f609a565b6040805173ffffffffffffffffffffffffffffffffffffffff9092168252519081900360200190f35b348015609357600080fd5b50605f60b6565b60015473ffffffffffffffffffffffffffffffffffffffff1681565b60005473ffffffffffffffffffffffffffffffffffffffff168156fea165627a7a72305820e1afeb60c17c9571ceb0269e4a4c73c90f93ed0f76dfaba4ad6af3f77712e2dc0029",
  "source": "pragma solidity >=0.4.24 <0.6.0;\n\nimport \"../storage/CandidateStorage.sol\";\nimport \"../storage/VoterStorage.sol\";\n\ncontract StorageState {\n    CandidateStorage public candidateStorage;\n    VoterStorage public voterStorage;\n}",
  "sourcePath": "/Users/jedsada/Documents/development/election-smart-contract/contracts/state/StorageState.sol",
  "compiler": {
    "name": "solc",
    "version": "0.5.0+commit.1d4f565a.Emscripten.clang"
  },
  "schemaVersion": "3.0.6",
  "updatedAt": "2019-04-30T11:18:06.320Z",
  "devdoc": {
    "methods": {}
  },
  "userdoc": {
    "methods": {}
  }
}