{
  "contractName": "VoterStorage",
  "abi": [
    {
      "constant": false,
      "inputs": [
        {
          "name": "_address",
          "type": "address"
        }
      ],
      "name": "setUserVote",
      "outputs": [],
      "payable": false,
      "stateMutability": "nonpayable",
      "type": "function",
      "signature": "0xb2d9c8fe"
    },
    {
      "constant": true,
      "inputs": [
        {
          "name": "_address",
          "type": "address"
        }
      ],
      "name": "isUserVoted",
      "outputs": [
        {
          "name": "",
          "type": "bool"
        }
      ],
      "payable": false,
      "stateMutability": "view",
      "type": "function",
      "signature": "0x6231bb05"
    },
    {
      "constant": true,
      "inputs": [],
      "name": "getCountVoter",
      "outputs": [
        {
          "name": "",
          "type": "uint256"
        }
      ],
      "payable": false,
      "stateMutability": "view",
      "type": "function",
      "signature": "0xf10ba0fe"
    },
    {
      "constant": true,
      "inputs": [
        {
          "name": "index",
          "type": "uint256"
        }
      ],
      "name": "getVoterAddress",
      "outputs": [
        {
          "name": "",
          "type": "address"
        }
      ],
      "payable": false,
      "stateMutability": "view",
      "type": "function",
      "signature": "0xd83b2c05"
    }
  ],
  "bytecode": "0x608060405234801561001057600080fd5b506102b2806100206000396000f3fe6080604052600436106100615763ffffffff7c01000000000000000000000000000000000000000000000000000000006000350416636231bb058114610066578063b2d9c8fe146100ba578063d83b2c05146100fc578063f10ba0fe1461014f575b600080fd5b34801561007257600080fd5b506100a66004803603602081101561008957600080fd5b503573ffffffffffffffffffffffffffffffffffffffff16610176565b604080519115158252519081900360200190f35b3480156100c657600080fd5b506100fa600480360360208110156100dd57600080fd5b503573ffffffffffffffffffffffffffffffffffffffff166101a1565b005b34801561010857600080fd5b506101266004803603602081101561011f57600080fd5b5035610247565b6040805173ffffffffffffffffffffffffffffffffffffffff9092168252519081900360200190f35b34801561015b57600080fd5b50610164610280565b60408051918252519081900360200190f35b73ffffffffffffffffffffffffffffffffffffffff1660009081526020819052604090205460ff1690565b73ffffffffffffffffffffffffffffffffffffffff16600081815260208190526040812080547fffffffffffffffffffffffffffffffffffffffffffffffffffffffffffffff001660019081179091558054808201825591527fb10e2d527612073b26eecdfd717e6a320cf44b4afac2b0732d9fcbe2b7fa0cf60180547fffffffffffffffffffffffff0000000000000000000000000000000000000000169091179055565b600060018281548110151561025857fe5b60009182526020909120015473ffffffffffffffffffffffffffffffffffffffff1692915050565b6001549056fea165627a7a7230582007317d030e9edef5c187a28312591be30bae7b577ef00a28bc0d1f4b0a9c62f50029",
  "source": "pragma solidity >=0.4.24 <0.6.0;\n\ncontract VoterStorage {\n\n    mapping(address => bool) private voter;\n    address[] private users;\n\n    function setUserVote(address _address) public {\n        voter[_address] = true;\n        users.push(_address);\n    }\n\n    function isUserVoted(address _address) public view returns (bool) {\n        return voter[_address];\n    }\n\n    function getCountVoter() public view returns (uint) {\n        return users.length;\n    }\n\n    function getVoterAddress(uint index) public view returns (address) {\n        return users[index];\n    }\n}",
  "sourcePath": "/Users/jedsada/Documents/development/election-smart-contract/contracts/storage/VoterStorage.sol",
  "compiler": {
    "name": "solc",
    "version": "0.5.0+commit.1d4f565a.Emscripten.clang"
  },
  "schemaVersion": "3.0.6",
  "updatedAt": "2019-04-30T11:18:12.058Z",
  "devdoc": {
    "methods": {}
  },
  "userdoc": {
    "methods": {}
  }
}