{
  "contractName": "App",
  "abi": [
    {
      "constant": true,
      "inputs": [],
      "name": "_implementation",
      "outputs": [
        {
          "name": "",
          "type": "address"
        }
      ],
      "payable": false,
      "stateMutability": "view",
      "type": "function",
      "signature": "0x59679b0f"
    },
    {
      "constant": true,
      "inputs": [],
      "name": "owner",
      "outputs": [
        {
          "name": "",
          "type": "address"
        }
      ],
      "payable": false,
      "stateMutability": "view",
      "type": "function",
      "signature": "0x8da5cb5b"
    },
    {
      "constant": true,
      "inputs": [],
      "name": "voterStorage",
      "outputs": [
        {
          "name": "",
          "type": "address"
        }
      ],
      "payable": false,
      "stateMutability": "view",
      "type": "function",
      "signature": "0x95c562cb"
    },
    {
      "constant": true,
      "inputs": [],
      "name": "candidateStorage",
      "outputs": [
        {
          "name": "",
          "type": "address"
        }
      ],
      "payable": false,
      "stateMutability": "view",
      "type": "function",
      "signature": "0x9de5d621"
    },
    {
      "constant": false,
      "inputs": [
        {
          "name": "newOwner",
          "type": "address"
        }
      ],
      "name": "transferOwnership",
      "outputs": [],
      "payable": false,
      "stateMutability": "nonpayable",
      "type": "function",
      "signature": "0xf2fde38b"
    },
    {
      "inputs": [
        {
          "name": "_candidateStorage",
          "type": "address"
        },
        {
          "name": "_voterStorage",
          "type": "address"
        }
      ],
      "payable": false,
      "stateMutability": "nonpayable",
      "type": "constructor",
      "signature": "constructor"
    },
    {
      "payable": true,
      "stateMutability": "payable",
      "type": "fallback"
    },
    {
      "anonymous": false,
      "inputs": [
        {
          "indexed": true,
          "name": "implementation",
          "type": "address"
        }
      ],
      "name": "Upgraded",
      "type": "event",
      "signature": "0xbc7cd75a20ee27fd9adebab32041f755214dbc6bffa90cc0225b39da2e5c2d3b"
    },
    {
      "anonymous": false,
      "inputs": [
        {
          "indexed": true,
          "name": "previousOwner",
          "type": "address"
        },
        {
          "indexed": true,
          "name": "newOwner",
          "type": "address"
        }
      ],
      "name": "OwnershipTransferred",
      "type": "event",
      "signature": "0x8be0079c531659141344cd1fd0a4f28419497f9722a3daafe3b4186f6b6457e0"
    },
    {
      "constant": true,
      "inputs": [],
      "name": "implementation",
      "outputs": [
        {
          "name": "",
          "type": "address"
        }
      ],
      "payable": false,
      "stateMutability": "view",
      "type": "function",
      "signature": "0x5c60da1b"
    },
    {
      "constant": false,
      "inputs": [
        {
          "name": "impl",
          "type": "address"
        }
      ],
      "name": "upgradeTo",
      "outputs": [],
      "payable": false,
      "stateMutability": "nonpayable",
      "type": "function",
      "signature": "0x3659cfe6"
    }
  ],
  "bytecode": "0x608060405234801561001057600080fd5b506040516040806105fd8339810180604052604081101561003057600080fd5b50805160209091015160028054600160a060020a0319908116331790915560008054600160a060020a039485169083161790556001805493909216921691909117905561057b806100826000396000f3fe6080604052600436106100825763ffffffff7c01000000000000000000000000000000000000000000000000000000006000350416633659cfe6811461019857806359679b0f146101da5780635c60da1b146102185780638da5cb5b1461022d57806395c562cb146102425780639de5d62114610257578063f2fde38b1461026c575b600061008c6102ac565b905073ffffffffffffffffffffffffffffffffffffffff8116151561013857604080517f08c379a000000000000000000000000000000000000000000000000000000000815260206004820152602760248201527f43616e6e6f742073657420696d706c656d656e746174696f6e20746f2061646460448201527f7265737328302900000000000000000000000000000000000000000000000000606482015290519081900360840190fd5b60606000368080601f016020809104026020016040519081016040528093929190818152602001838380828437600092018290525084519495509384935091505060208401855af43d604051816000823e828015610194578282f35b8282fd5b3480156101a457600080fd5b506101d8600480360360208110156101bb57600080fd5b503573ffffffffffffffffffffffffffffffffffffffff166102c8565b005b3480156101e657600080fd5b506101ef61040b565b6040805173ffffffffffffffffffffffffffffffffffffffff9092168252519081900360200190f35b34801561022457600080fd5b506101ef6102ac565b34801561023957600080fd5b506101ef610427565b34801561024e57600080fd5b506101ef610443565b34801561026357600080fd5b506101ef61045f565b34801561027857600080fd5b506101d86004803603602081101561028f57600080fd5b503573ffffffffffffffffffffffffffffffffffffffff1661047b565b60035473ffffffffffffffffffffffffffffffffffffffff1690565b60025473ffffffffffffffffffffffffffffffffffffffff1633146102ec57600080fd5b60035473ffffffffffffffffffffffffffffffffffffffff8281169116141561039c57604080517f08c379a000000000000000000000000000000000000000000000000000000000815260206004820152602a60248201527f43616e6e6f74207570677261646520746f207468652073616d6520696d706c6560448201527f6d656e746174696f6e2e00000000000000000000000000000000000000000000606482015290519081900360840190fd5b600380547fffffffffffffffffffffffff00000000000000000000000000000000000000001673ffffffffffffffffffffffffffffffffffffffff83169081179091556040517fbc7cd75a20ee27fd9adebab32041f755214dbc6bffa90cc0225b39da2e5c2d3b90600090a250565b60035473ffffffffffffffffffffffffffffffffffffffff1681565b60025473ffffffffffffffffffffffffffffffffffffffff1681565b60015473ffffffffffffffffffffffffffffffffffffffff1681565b60005473ffffffffffffffffffffffffffffffffffffffff1681565b60025473ffffffffffffffffffffffffffffffffffffffff16331461049f57600080fd5b73ffffffffffffffffffffffffffffffffffffffff811615156104c157600080fd5b60025460405173ffffffffffffffffffffffffffffffffffffffff8084169216907f8be0079c531659141344cd1fd0a4f28419497f9722a3daafe3b4186f6b6457e090600090a3600280547fffffffffffffffffffffffff00000000000000000000000000000000000000001673ffffffffffffffffffffffffffffffffffffffff9290921691909117905556fea165627a7a72305820f5f5fa3632563cbaed1b903f8dc2501b53d386878884df2a15beb96c2fcfd72a0029",
  "source": "pragma solidity >=0.4.24 <0.6.0;\n\nimport \"../state/StorageState.sol\";\nimport \"../permission/Ownable.sol\";\n\ncontract App is StorageState, Ownable {\n\n    constructor(CandidateStorage _candidateStorage, VoterStorage _voterStorage) public {\n        candidateStorage = _candidateStorage;\n        voterStorage = _voterStorage;\n    }\n\n    event Upgraded(address indexed implementation);\n\n    address public _implementation;\n\n    function implementation() public view returns (address) {\n        return _implementation;\n    }\n\n    function upgradeTo(address impl) public onlyOwner {\n        require(\n            _implementation != impl,\n            \"Cannot upgrade to the same implementation.\"\n        );\n        _implementation = impl;\n        emit Upgraded(impl);\n    }\n\n    function() external payable {\n        address _impl = implementation();\n        require(\n            _impl != address(0),\n            \"Cannot set implementation to address(0)\"\n        );\n\n        bytes memory data = msg.data;\n\n        assembly {\n            let result := delegatecall(gas, _impl, add(data, 0x20), mload(data), 0, 0)\n            let size := returndatasize\n            let ptr := mload(0x40)\n            returndatacopy(ptr, 0, size)\n            switch result\n            case 0 { revert(ptr, size) }\n            default { return(ptr, size) }\n        }\n    }\n}",
  "sourcePath": "/Users/jedsada/Documents/development/election-smart-contract/contracts/proxy/App.sol",
  "compiler": {
    "name": "solc",
    "version": "0.5.0+commit.1d4f565a.Emscripten.clang"
  },
  "schemaVersion": "3.0.6",
  "updatedAt": "2019-05-23T17:22:14.023Z",
  "devdoc": {
    "methods": {}
  },
  "userdoc": {
    "methods": {}
  }
}