{
  "contractName": "CandidateStorage",
  "abi": [
    {
      "constant": false,
      "inputs": [
        {
          "name": "_name",
          "type": "string"
        },
        {
          "name": "partyName",
          "type": "string"
        },
        {
          "name": "partyLogo",
          "type": "string"
        },
        {
          "name": "_imageUrl",
          "type": "string"
        }
      ],
      "name": "setCandidate",
      "outputs": [
        {
          "name": "",
          "type": "uint256"
        }
      ],
      "payable": false,
      "stateMutability": "nonpayable",
      "type": "function",
      "signature": "0x2a028b55"
    },
    {
      "constant": true,
      "inputs": [
        {
          "name": "_id",
          "type": "uint256"
        }
      ],
      "name": "getCandidate",
      "outputs": [
        {
          "name": "",
          "type": "uint256"
        },
        {
          "name": "",
          "type": "string"
        },
        {
          "name": "",
          "type": "string"
        },
        {
          "name": "",
          "type": "string"
        },
        {
          "name": "",
          "type": "string"
        },
        {
          "name": "",
          "type": "uint256"
        }
      ],
      "payable": false,
      "stateMutability": "view",
      "type": "function",
      "signature": "0x35b8e820"
    },
    {
      "constant": false,
      "inputs": [
        {
          "name": "_id",
          "type": "uint256"
        }
      ],
      "name": "updateVoteCount",
      "outputs": [],
      "payable": false,
      "stateMutability": "nonpayable",
      "type": "function",
      "signature": "0x2cddc81d"
    },
    {
      "constant": true,
      "inputs": [],
      "name": "getCount",
      "outputs": [
        {
          "name": "count",
          "type": "uint256"
        }
      ],
      "payable": false,
      "stateMutability": "view",
      "type": "function",
      "signature": "0xa87d942c"
    }
  ],
  "bytecode": "0x608060405234801561001057600080fd5b50610999806100206000396000f3fe6080604052600436106100615763ffffffff7c01000000000000000000000000000000000000000000000000000000006000350416632a028b5581146100665780632cddc81d146102c057806335b8e820146102ec578063a87d942c146104ce575b600080fd5b34801561007257600080fd5b506102ae6004803603608081101561008957600080fd5b8101906020810181356401000000008111156100a457600080fd5b8201836020820111156100b657600080fd5b803590602001918460018302840111640100000000831117156100d857600080fd5b91908080601f016020809104026020016040519081016040528093929190818152602001838380828437600092019190915250929594936020810193503591505064010000000081111561012b57600080fd5b82018360208201111561013d57600080fd5b8035906020019184600183028401116401000000008311171561015f57600080fd5b91908080601f01602080910402602001604051908101604052809392919081815260200183838082843760009201919091525092959493602081019350359150506401000000008111156101b257600080fd5b8201836020820111156101c457600080fd5b803590602001918460018302840111640100000000831117156101e657600080fd5b91908080601f016020809104026020016040519081016040528093929190818152602001838380828437600092019190915250929594936020810193503591505064010000000081111561023957600080fd5b82018360208201111561024b57600080fd5b8035906020019184600183028401116401000000008311171561026d57600080fd5b91908080601f0160208091040260200160405190810160405280939291908181526020018383808284376000920191909152509295506104e3945050505050565b60408051918252519081900360200190f35b3480156102cc57600080fd5b506102ea600480360360208110156102e357600080fd5b50356105c2565b005b3480156102f857600080fd5b506103166004803603602081101561030f57600080fd5b50356105dc565b604051808781526020018060200180602001806020018060200186815260200185810385528a818151815260200191508051906020019080838360005b8381101561036b578181015183820152602001610353565b50505050905090810190601f1680156103985780820380516001836020036101000a031916815260200191505b5085810384528951815289516020918201918b019080838360005b838110156103cb5781810151838201526020016103b3565b50505050905090810190601f1680156103f85780820380516001836020036101000a031916815260200191505b5085810383528851815288516020918201918a019080838360005b8381101561042b578181015183820152602001610413565b50505050905090810190601f1680156104585780820380516001836020036101000a031916815260200191505b50858103825287518152875160209182019189019080838360005b8381101561048b578181015183820152602001610473565b50505050905090810190601f1680156104b85780820380516001836020036101000a031916815260200191505b509a505050505050505050505060405180910390f35b3480156104da57600080fd5b506102ae610897565b600180548101905560006104f561089e565b506040805160c0810182526001805480835260208084018a81528486018a90526060850189905260808501889052600060a08601819052928352828252949091208351815593518051939485949093610553939085019201906108d5565b506040820151805161056f9160028401916020909101906108d5565b506060820151805161058b9160038401916020909101906108d5565b50608082015180516105a79160048401916020909101906108d5565b5060a091909101516005909101555050600154949350505050565b600090815260208190526040902060050180546001019055565b600060608060608060006105ee61089e565b60008881526020818152604091829020825160c08101845281548152600180830180548651600293821615610100026000190190911692909204601f81018690048602830186019096528582529194929385810193919291908301828280156106985780601f1061066d57610100808354040283529160200191610698565b820191906000526020600020905b81548152906001019060200180831161067b57829003601f168201915b5050509183525050600282810180546040805160206001841615610100026000190190931694909404601f8101839004830285018301909152808452938101939083018282801561072a5780601f106106ff5761010080835404028352916020019161072a565b820191906000526020600020905b81548152906001019060200180831161070d57829003601f168201915b505050918352505060038201805460408051602060026001851615610100026000190190941693909304601f81018490048402820184019092528181529382019392918301828280156107be5780601f10610793576101008083540402835291602001916107be565b820191906000526020600020905b8154815290600101906020018083116107a157829003601f168201915b505050918352505060048201805460408051602060026001851615610100026000190190941693909304601f81018490048402820184019092528181529382019392918301828280156108525780601f1061082757610100808354040283529160200191610852565b820191906000526020600020905b81548152906001019060200180831161083557829003601f168201915b50505091835250506005919091015460209182015281519082015160408301516060840151608085015160a090950151939d929c50909a509850919650945092505050565b6001545b90565b60c0604051908101604052806000815260200160608152602001606081526020016060815260200160608152602001600081525090565b828054600181600116156101000203166002900490600052602060002090601f016020900481019282601f1061091657805160ff1916838001178555610943565b82800160010185558215610943579182015b82811115610943578251825591602001919060010190610928565b5061094f929150610953565b5090565b61089b91905b8082111561094f576000815560010161095956fea165627a7a72305820407e96177f6969fe63a3a61ffd127eba7d0428c3ec737ea8afe619baffbaf9a40029",
  "source": "pragma solidity >=0.4.24 <0.6.0;\n\ncontract CandidateStorage {\n\n    struct Candidate {\n        uint id;\n        string name;\n        string partyName;\n        string partyLogo;\n        string imageUrl;\n        uint voteCount;\n    }\n\n    mapping(uint => Candidate) private candidates;\n\n    uint private candidateCount;\n\n    function setCandidate(\n        string memory _name, \n        string memory partyName, \n        string memory partyLogo, \n        string memory _imageUrl\n    ) public returns (uint) {\n        candidateCount++;\n        Candidate memory candidate = Candidate(candidateCount, _name, partyName, partyLogo, _imageUrl, 0);\n        candidates[candidateCount] = candidate;\n        return candidateCount;\n    }\n\n    function getCandidate(uint _id) public view returns(uint, string memory, string memory, string memory, string memory, uint) {\n        Candidate memory candidate = candidates[_id];\n        return (candidate.id, candidate.name, candidate.partyName, candidate.partyLogo, candidate.imageUrl, candidate.voteCount);\n    }\n\n    function updateVoteCount(uint _id) public {\n        candidates[_id].voteCount++;\n    }\n\n    function getCount() public view returns (uint count) {\n        return candidateCount;\n    }\n}",
  "sourcePath": "/Users/jedsada/Documents/development/election-smart-contract/contracts/storage/CandidateStorage.sol",
  "compiler": {
    "name": "solc",
    "version": "0.5.0+commit.1d4f565a.Emscripten.clang"
  },
  "schemaVersion": "3.0.6",
  "updatedAt": "2019-05-13T03:06:44.191Z",
  "devdoc": {
    "methods": {}
  },
  "userdoc": {
    "methods": {}
  }
}