{
  "contractName": "CandidateStorage",
  "abi": [
    {
      "constant": false,
      "inputs": [
        {
          "name": "_name",
          "type": "string"
        },
        {
          "name": "_imageUrl",
          "type": "string"
        }
      ],
      "name": "setCandidate",
      "outputs": [
        {
          "name": "",
          "type": "uint256"
        }
      ],
      "payable": false,
      "stateMutability": "nonpayable",
      "type": "function",
      "signature": "0x0f3919c7"
    },
    {
      "constant": true,
      "inputs": [
        {
          "name": "_id",
          "type": "uint256"
        }
      ],
      "name": "getCandidate",
      "outputs": [
        {
          "name": "",
          "type": "uint256"
        },
        {
          "name": "",
          "type": "string"
        },
        {
          "name": "",
          "type": "string"
        },
        {
          "name": "",
          "type": "uint256"
        }
      ],
      "payable": false,
      "stateMutability": "view",
      "type": "function",
      "signature": "0x35b8e820"
    },
    {
      "constant": false,
      "inputs": [
        {
          "name": "_id",
          "type": "uint256"
        }
      ],
      "name": "updateVoteCount",
      "outputs": [],
      "payable": false,
      "stateMutability": "nonpayable",
      "type": "function",
      "signature": "0x2cddc81d"
    },
    {
      "constant": true,
      "inputs": [],
      "name": "getCount",
      "outputs": [
        {
          "name": "count",
          "type": "uint256"
        }
      ],
      "payable": false,
      "stateMutability": "view",
      "type": "function",
      "signature": "0xa87d942c"
    }
  ],
  "bytecode": "0x608060405234801561001057600080fd5b5061062f806100206000396000f3fe6080604052600436106100615763ffffffff7c01000000000000000000000000000000000000000000000000000000006000350416630f3919c781146100665780632cddc81d146101b257806335b8e820146101de578063a87d942c146102f4575b600080fd5b34801561007257600080fd5b506101a06004803603604081101561008957600080fd5b8101906020810181356401000000008111156100a457600080fd5b8201836020820111156100b657600080fd5b803590602001918460018302840111640100000000831117156100d857600080fd5b91908080601f016020809104026020016040519081016040528093929190818152602001838380828437600092019190915250929594936020810193503591505064010000000081111561012b57600080fd5b82018360208201111561013d57600080fd5b8035906020019184600183028401116401000000008311171561015f57600080fd5b91908080601f016020809104026020016040519081016040528093929190818152602001838380828437600092019190915250929550610309945050505050565b60408051918252519081900360200190f35b3480156101be57600080fd5b506101dc600480360360208110156101d557600080fd5b50356103a0565b005b3480156101ea57600080fd5b506102086004803603602081101561020157600080fd5b50356103ba565b604051808581526020018060200180602001848152602001838103835286818151815260200191508051906020019080838360005b8381101561025557818101518382015260200161023d565b50505050905090810190601f1680156102825780820380516001836020036101000a031916815260200191505b50838103825285518152855160209182019187019080838360005b838110156102b557818101518382015260200161029d565b50505050905090810190601f1680156102e25780820380516001836020036101000a031916815260200191505b50965050505050505060405180910390f35b34801561030057600080fd5b506101a061053b565b6001805481019055600061031b610542565b506040805160808101825260018054808352602080840188815284860188905260006060860181905292835282825294909120835181559351805193948594909361036b9390850192019061056b565b506040820151805161038791600284019160209091019061056b565b5060609190910151600390910155505060015492915050565b600090815260208190526040902060030180546001019055565b600060608060006103c9610542565b60008681526020818152604091829020825160808101845281548152600180830180548651600293821615610100026000190190911692909204601f81018690048602830186019096528582529194929385810193919291908301828280156104735780601f1061044857610100808354040283529160200191610473565b820191906000526020600020905b81548152906001019060200180831161045657829003601f168201915b5050509183525050600282810180546040805160206001841615610100026000190190931694909404601f810183900483028501830190915280845293810193908301828280156105055780601f106104da57610100808354040283529160200191610505565b820191906000526020600020905b8154815290600101906020018083116104e857829003601f168201915b50505091835250506003919091015460209182015281519082015160408301516060909301519199909850919650945092505050565b6001545b90565b608060405190810160405280600081526020016060815260200160608152602001600081525090565b828054600181600116156101000203166002900490600052602060002090601f016020900481019282601f106105ac57805160ff19168380011785556105d9565b828001600101855582156105d9579182015b828111156105d95782518255916020019190600101906105be565b506105e59291506105e9565b5090565b61053f91905b808211156105e557600081556001016105ef56fea165627a7a723058204bce74b73a67803e1a4f40aa416d13a930b3c1528966a82ed8aad35c52859c870029",
  "source": "pragma solidity >=0.4.24 <0.6.0;\n\ncontract CandidateStorage {\n\n    struct Candidate {\n        uint id;\n        string name;\n        string imageUrl;\n        uint voteCount;\n    }\n\n    mapping(uint => Candidate) private candidates;\n\n    uint private candidateCount;\n\n    function setCandidate(string memory _name, string memory _imageUrl) public returns (uint) {\n        candidateCount++;\n        Candidate memory candidate = Candidate(candidateCount, _name, _imageUrl, 0);\n        candidates[candidateCount] = candidate;\n        return candidateCount;\n    }\n\n    function getCandidate(uint _id) public view returns(uint, string memory, string memory, uint) {\n        Candidate memory candidate = candidates[_id];\n        return (candidate.id, candidate.name, candidate.imageUrl, candidate.voteCount);\n    }\n\n    function updateVoteCount(uint _id) public {\n        candidates[_id].voteCount++;\n    }\n\n    function getCount() public view returns (uint count) {\n        return candidateCount;\n    }\n}",
  "sourcePath": "/Users/jedsada/Documents/development/election-smart-contract/contracts/storage/CandidateStorage.sol",
  "compiler": {
    "name": "solc",
    "version": "0.5.0+commit.1d4f565a.Emscripten.clang"
  },
  "schemaVersion": "3.0.6",
  "updatedAt": "2019-05-07T11:27:12.982Z",
  "devdoc": {
    "methods": {}
  },
  "userdoc": {
    "methods": {}
  }
}