{
  "contractName": "ElectionContract",
  "abi": [
    {
      "constant": true,
      "inputs": [],
      "name": "owner",
      "outputs": [
        {
          "name": "",
          "type": "address"
        }
      ],
      "payable": false,
      "stateMutability": "view",
      "type": "function",
      "signature": "0x8da5cb5b"
    },
    {
      "constant": true,
      "inputs": [],
      "name": "voterStorage",
      "outputs": [
        {
          "name": "",
          "type": "address"
        }
      ],
      "payable": false,
      "stateMutability": "view",
      "type": "function",
      "signature": "0x95c562cb"
    },
    {
      "constant": true,
      "inputs": [],
      "name": "candidateStorage",
      "outputs": [
        {
          "name": "",
          "type": "address"
        }
      ],
      "payable": false,
      "stateMutability": "view",
      "type": "function",
      "signature": "0x9de5d621"
    },
    {
      "constant": false,
      "inputs": [
        {
          "name": "newOwner",
          "type": "address"
        }
      ],
      "name": "transferOwnership",
      "outputs": [],
      "payable": false,
      "stateMutability": "nonpayable",
      "type": "function",
      "signature": "0xf2fde38b"
    },
    {
      "anonymous": false,
      "inputs": [
        {
          "indexed": false,
          "name": "id",
          "type": "uint256"
        },
        {
          "indexed": false,
          "name": "name",
          "type": "string"
        },
        {
          "indexed": false,
          "name": "partyName",
          "type": "string"
        },
        {
          "indexed": false,
          "name": "logoParty",
          "type": "string"
        },
        {
          "indexed": false,
          "name": "imageUrl",
          "type": "string"
        }
      ],
      "name": "NewCandidateEvent",
      "type": "event",
      "signature": "0xf6a87ec8981d8ec6f524bcfae6797b8baed5a27aede51bccfc68e5ac6ba384c0"
    },
    {
      "anonymous": false,
      "inputs": [
        {
          "indexed": false,
          "name": "id",
          "type": "uint256"
        },
        {
          "indexed": false,
          "name": "name",
          "type": "string"
        },
        {
          "indexed": false,
          "name": "partyName",
          "type": "string"
        },
        {
          "indexed": false,
          "name": "logoParty",
          "type": "string"
        },
        {
          "indexed": false,
          "name": "imageUrl",
          "type": "string"
        },
        {
          "indexed": false,
          "name": "voteCount",
          "type": "uint256"
        }
      ],
      "name": "VoteCandidateEvent",
      "type": "event",
      "signature": "0xefd4d1551e59e77594662e5a530cc7507704f74310bc4f85a7542426c2467cf5"
    },
    {
      "anonymous": false,
      "inputs": [
        {
          "indexed": true,
          "name": "previousOwner",
          "type": "address"
        },
        {
          "indexed": true,
          "name": "newOwner",
          "type": "address"
        }
      ],
      "name": "OwnershipTransferred",
      "type": "event",
      "signature": "0x8be0079c531659141344cd1fd0a4f28419497f9722a3daafe3b4186f6b6457e0"
    },
    {
      "constant": false,
      "inputs": [
        {
          "name": "_name",
          "type": "string"
        },
        {
          "name": "_partyName",
          "type": "string"
        },
        {
          "name": "_logoParty",
          "type": "string"
        },
        {
          "name": "_imageUrl",
          "type": "string"
        }
      ],
      "name": "addCandidate",
      "outputs": [],
      "payable": false,
      "stateMutability": "nonpayable",
      "type": "function",
      "signature": "0x42b03cc9"
    },
    {
      "constant": true,
      "inputs": [],
      "name": "getTotalCandidate",
      "outputs": [
        {
          "name": "",
          "type": "uint256"
        }
      ],
      "payable": false,
      "stateMutability": "view",
      "type": "function",
      "signature": "0x64d198a1"
    },
    {
      "constant": true,
      "inputs": [
        {
          "name": "id",
          "type": "uint256"
        }
      ],
      "name": "getCandidate",
      "outputs": [
        {
          "name": "",
          "type": "uint256"
        },
        {
          "name": "",
          "type": "string"
        },
        {
          "name": "",
          "type": "string"
        },
        {
          "name": "",
          "type": "string"
        },
        {
          "name": "",
          "type": "string"
        },
        {
          "name": "",
          "type": "uint256"
        }
      ],
      "payable": false,
      "stateMutability": "view",
      "type": "function",
      "signature": "0x35b8e820"
    },
    {
      "constant": false,
      "inputs": [
        {
          "name": "_candidateId",
          "type": "uint256"
        }
      ],
      "name": "vote",
      "outputs": [],
      "payable": false,
      "stateMutability": "nonpayable",
      "type": "function",
      "signature": "0x0121b93f"
    },
    {
      "constant": true,
      "inputs": [],
      "name": "getTotalVoter",
      "outputs": [
        {
          "name": "total",
          "type": "uint256"
        }
      ],
      "payable": false,
      "stateMutability": "view",
      "type": "function",
      "signature": "0x0b93400e"
    },
    {
      "constant": true,
      "inputs": [
        {
          "name": "id",
          "type": "uint256"
        }
      ],
      "name": "getVoter",
      "outputs": [
        {
          "name": "",
          "type": "address"
        }
      ],
      "payable": false,
      "stateMutability": "view",
      "type": "function",
      "signature": "0xd07bff0c"
    },
    {
      "constant": true,
      "inputs": [],
      "name": "checkUserCanVote",
      "outputs": [
        {
          "name": "",
          "type": "bool"
        }
      ],
      "payable": false,
      "stateMutability": "view",
      "type": "function",
      "signature": "0x070fa866"
    },
    {
      "constant": true,
      "inputs": [],
      "name": "getVoterVotedCandidate",
      "outputs": [
        {
          "name": "candidateId",
          "type": "uint256"
        }
      ],
      "payable": false,
      "stateMutability": "view",
      "type": "function",
      "signature": "0xffa46fda"
    }
  ],
  "bytecode": "0x608060405260028054600160a060020a03191633179055611b6a806100256000396000f3fe6080604052600436106100b95763ffffffff7c01000000000000000000000000000000000000000000000000000000006000350416630121b93f81146100be578063070fa866146100ea5780630b93400e1461011357806335b8e8201461013a57806342b03cc91461031c57806364d198a1146105645780638da5cb5b1461057957806395c562cb146105b75780639de5d621146105cc578063d07bff0c146105e1578063f2fde38b1461060b578063ffa46fda1461064b575b600080fd5b3480156100ca57600080fd5b506100e8600480360360208110156100e157600080fd5b5035610660565b005b3480156100f657600080fd5b506100ff610ddb565b604080519115158252519081900360200190f35b34801561011f57600080fd5b50610128610e7e565b60408051918252519081900360200190f35b34801561014657600080fd5b506101646004803603602081101561015d57600080fd5b5035610f1a565b604051808781526020018060200180602001806020018060200186815260200185810385528a818151815260200191508051906020019080838360005b838110156101b95781810151838201526020016101a1565b50505050905090810190601f1680156101e65780820380516001836020036101000a031916815260200191505b5085810384528951815289516020918201918b019080838360005b83811015610219578181015183820152602001610201565b50505050905090810190601f1680156102465780820380516001836020036101000a031916815260200191505b5085810383528851815288516020918201918a019080838360005b83811015610279578181015183820152602001610261565b50505050905090810190601f1680156102a65780820380516001836020036101000a031916815260200191505b50858103825287518152875160209182019189019080838360005b838110156102d95781810151838201526020016102c1565b50505050905090810190601f1680156103065780820380516001836020036101000a031916815260200191505b509a505050505050505050505060405180910390f35b34801561032857600080fd5b506100e86004803603608081101561033f57600080fd5b81019060208101813564010000000081111561035a57600080fd5b82018360208201111561036c57600080fd5b8035906020019184600183028401116401000000008311171561038e57600080fd5b91908080601f01602080910402602001604051908101604052809392919081815260200183838082843760009201919091525092959493602081019350359150506401000000008111156103e157600080fd5b8201836020820111156103f357600080fd5b8035906020019184600183028401116401000000008311171561041557600080fd5b91908080601f016020809104026020016040519081016040528093929190818152602001838380828437600092019190915250929594936020810193503591505064010000000081111561046857600080fd5b82018360208201111561047a57600080fd5b8035906020019184600183028401116401000000008311171561049c57600080fd5b91908080601f01602080910402602001604051908101604052809392919081815260200183838082843760009201919091525092959493602081019350359150506401000000008111156104ef57600080fd5b82018360208201111561050157600080fd5b8035906020019184600183028401116401000000008311171561052357600080fd5b91908080601f01602080910402602001604051908101604052809392919081815260200183838082843760009201919091525092955061126c945050505050565b34801561057057600080fd5b5061012861175b565b34801561058557600080fd5b5061058e6117e0565b6040805173ffffffffffffffffffffffffffffffffffffffff9092168252519081900360200190f35b3480156105c357600080fd5b5061058e6117fc565b3480156105d857600080fd5b5061058e611818565b3480156105ed57600080fd5b5061058e6004803603602081101561060457600080fd5b5035611834565b34801561061757600080fd5b506100e86004803603602081101561062e57600080fd5b503573ffffffffffffffffffffffffffffffffffffffff166119f9565b34801561065757600080fd5b50610128611acd565b600154604080517f6231bb05000000000000000000000000000000000000000000000000000000008152336004820152905173ffffffffffffffffffffffffffffffffffffffff90921691636231bb0591602480820192602092909190829003018186803b1580156106d157600080fd5b505afa1580156106e5573d6000803e3d6000fd5b505050506040513d60208110156106fb57600080fd5b50511561076957604080517f08c379a000000000000000000000000000000000000000000000000000000000815260206004820152601960248201527f54686973206163636f756e7420616c726561647920766f746500000000000000604482015290519081900360640190fd5b8060008111801561082857506000809054906101000a900473ffffffffffffffffffffffffffffffffffffffff1673ffffffffffffffffffffffffffffffffffffffff1663a87d942c6040518163ffffffff167c010000000000000000000000000000000000000000000000000000000002815260040160206040518083038186803b1580156107f857600080fd5b505afa15801561080c573d6000803e3d6000fd5b505050506040513d602081101561082257600080fd5b50518111155b15156108bb57604080517f08c379a000000000000000000000000000000000000000000000000000000000815260206004820152602260248201527f53797374656d206e6f7420666f756e6420746869732063616e6469646174652060448201527f6964000000000000000000000000000000000000000000000000000000000000606482015290519081900360840190fd5b600154604080517fb0ae8e3400000000000000000000000000000000000000000000000000000000815233600482015260248101859052905173ffffffffffffffffffffffffffffffffffffffff9092169163b0ae8e349160448082019260009290919082900301818387803b15801561093457600080fd5b505af1158015610948573d6000803e3d6000fd5b505060008054604080517f2cddc81d00000000000000000000000000000000000000000000000000000000815260048101889052905173ffffffffffffffffffffffffffffffffffffffff9092169450632cddc81d9350602480820193929182900301818387803b1580156109bc57600080fd5b505af11580156109d0573d6000803e3d6000fd5b50505050600060608060608060008060009054906101000a900473ffffffffffffffffffffffffffffffffffffffff1673ffffffffffffffffffffffffffffffffffffffff166335b8e820896040518263ffffffff167c01000000000000000000000000000000000000000000000000000000000281526004018082815260200191505060006040518083038186803b158015610a6c57600080fd5b505afa158015610a80573d6000803e3d6000fd5b505050506040513d6000823e601f3d908101601f1916820160405260c0811015610aa957600080fd5b815160208301805191939283019291640100000000811115610aca57600080fd5b82016020810184811115610add57600080fd5b8151640100000000811182820187101715610af757600080fd5b50509291906020018051640100000000811115610b1357600080fd5b82016020810184811115610b2657600080fd5b8151640100000000811182820187101715610b4057600080fd5b50509291906020018051640100000000811115610b5c57600080fd5b82016020810184811115610b6f57600080fd5b8151640100000000811182820187101715610b8957600080fd5b50509291906020018051640100000000811115610ba557600080fd5b82016020810184811115610bb857600080fd5b8151640100000000811182820187101715610bd257600080fd5b5050929190602001805190602001909291905050509550955095509550955095507fefd4d1551e59e77594662e5a530cc7507704f74310bc4f85a7542426c2467cf5868686868686604051808781526020018060200180602001806020018060200186815260200185810385528a818151815260200191508051906020019080838360005b83811015610c6f578181015183820152602001610c57565b50505050905090810190601f168015610c9c5780820380516001836020036101000a031916815260200191505b5085810384528951815289516020918201918b019080838360005b83811015610ccf578181015183820152602001610cb7565b50505050905090810190601f168015610cfc5780820380516001836020036101000a031916815260200191505b5085810383528851815288516020918201918a019080838360005b83811015610d2f578181015183820152602001610d17565b50505050905090810190601f168015610d5c5780820380516001836020036101000a031916815260200191505b50858103825287518152875160209182019189019080838360005b83811015610d8f578181015183820152602001610d77565b50505050905090810190601f168015610dbc5780820380516001836020036101000a031916815260200191505b509a505050505050505050505060405180910390a15050505050505050565b600154604080517f6231bb05000000000000000000000000000000000000000000000000000000008152336004820152905160009273ffffffffffffffffffffffffffffffffffffffff1691636231bb05916024808301926020929190829003018186803b158015610e4c57600080fd5b505afa158015610e60573d6000803e3d6000fd5b505050506040513d6020811015610e7657600080fd5b505115905090565b600154604080517ff10ba0fe000000000000000000000000000000000000000000000000000000008152905160009273ffffffffffffffffffffffffffffffffffffffff169163f10ba0fe916004808301926020929190829003018186803b158015610ee957600080fd5b505afa158015610efd573d6000803e3d6000fd5b505050506040513d6020811015610f1357600080fd5b5051905090565b6000606080606080600086600081118015610fe357506000809054906101000a900473ffffffffffffffffffffffffffffffffffffffff1673ffffffffffffffffffffffffffffffffffffffff1663a87d942c6040518163ffffffff167c010000000000000000000000000000000000000000000000000000000002815260040160206040518083038186803b158015610fb357600080fd5b505afa158015610fc7573d6000803e3d6000fd5b505050506040513d6020811015610fdd57600080fd5b50518111155b151561107657604080517f08c379a000000000000000000000000000000000000000000000000000000000815260206004820152602260248201527f53797374656d206e6f7420666f756e6420746869732063616e6469646174652060448201527f6964000000000000000000000000000000000000000000000000000000000000606482015290519081900360840190fd5b60008054604080517f35b8e820000000000000000000000000000000000000000000000000000000008152600481018c9052905173ffffffffffffffffffffffffffffffffffffffff909216926335b8e82092602480840193829003018186803b1580156110e357600080fd5b505afa1580156110f7573d6000803e3d6000fd5b505050506040513d6000823e601f3d908101601f1916820160405260c081101561112057600080fd5b81516020830180519193928301929164010000000081111561114157600080fd5b8201602081018481111561115457600080fd5b815164010000000081118282018710171561116e57600080fd5b5050929190602001805164010000000081111561118a57600080fd5b8201602081018481111561119d57600080fd5b81516401000000008111828201871017156111b757600080fd5b505092919060200180516401000000008111156111d357600080fd5b820160208101848111156111e657600080fd5b815164010000000081118282018710171561120057600080fd5b5050929190602001805164010000000081111561121c57600080fd5b8201602081018481111561122f57600080fd5b815164010000000081118282018710171561124957600080fd5b505060209190910151969f959e50939c50919a5091985092965090945050505050565b60025473ffffffffffffffffffffffffffffffffffffffff16331461131857604080517f08c379a000000000000000000000000000000000000000000000000000000000815260206004820152602660248201527f536f727279212c20546869732066756e6374696f6e20666f72206d616e61676560448201527f72206f6e6c790000000000000000000000000000000000000000000000000000606482015290519081900360840190fd5b60008060009054906101000a900473ffffffffffffffffffffffffffffffffffffffff1673ffffffffffffffffffffffffffffffffffffffff16632a028b55868686866040518563ffffffff167c01000000000000000000000000000000000000000000000000000000000281526004018080602001806020018060200180602001858103855289818151815260200191508051906020019080838360005b838110156113cf5781810151838201526020016113b7565b50505050905090810190601f1680156113fc5780820380516001836020036101000a031916815260200191505b5085810384528851815288516020918201918a019080838360005b8381101561142f578181015183820152602001611417565b50505050905090810190601f16801561145c5780820380516001836020036101000a031916815260200191505b50858103835287518152875160209182019189019080838360005b8381101561148f578181015183820152602001611477565b50505050905090810190601f1680156114bc5780820380516001836020036101000a031916815260200191505b50858103825286518152865160209182019188019080838360005b838110156114ef5781810151838201526020016114d7565b50505050905090810190601f16801561151c5780820380516001836020036101000a031916815260200191505b5098505050505050505050602060405180830381600087803b15801561154157600080fd5b505af1158015611555573d6000803e3d6000fd5b505050506040513d602081101561156b57600080fd5b810190808051906020019092919050505090507ff6a87ec8981d8ec6f524bcfae6797b8baed5a27aede51bccfc68e5ac6ba384c081868686866040518086815260200180602001806020018060200180602001858103855289818151815260200191508051906020019080838360005b838110156115f35781810151838201526020016115db565b50505050905090810190601f1680156116205780820380516001836020036101000a031916815260200191505b5085810384528851815288516020918201918a019080838360005b8381101561165357818101518382015260200161163b565b50505050905090810190601f1680156116805780820380516001836020036101000a031916815260200191505b50858103835287518152875160209182019189019080838360005b838110156116b357818101518382015260200161169b565b50505050905090810190601f1680156116e05780820380516001836020036101000a031916815260200191505b50858103825286518152865160209182019188019080838360005b838110156117135781810151838201526020016116fb565b50505050905090810190601f1680156117405780820380516001836020036101000a031916815260200191505b50995050505050505050505060405180910390a15050505050565b60008060009054906101000a900473ffffffffffffffffffffffffffffffffffffffff1673ffffffffffffffffffffffffffffffffffffffff1663a87d942c6040518163ffffffff167c010000000000000000000000000000000000000000000000000000000002815260040160206040518083038186803b158015610ee957600080fd5b60025473ffffffffffffffffffffffffffffffffffffffff1681565b60015473ffffffffffffffffffffffffffffffffffffffff1681565b60005473ffffffffffffffffffffffffffffffffffffffff1681565b600081600160009054906101000a900473ffffffffffffffffffffffffffffffffffffffff1673ffffffffffffffffffffffffffffffffffffffff1663f10ba0fe6040518163ffffffff167c010000000000000000000000000000000000000000000000000000000002815260040160206040518083038186803b1580156118bb57600080fd5b505afa1580156118cf573d6000803e3d6000fd5b505050506040513d60208110156118e557600080fd5b5051811061195457604080517f08c379a000000000000000000000000000000000000000000000000000000000815260206004820152601e60248201527f53797374656d206e6f7420666f756e64207468697320766f7465722069640000604482015290519081900360640190fd5b600154604080517fd83b2c0500000000000000000000000000000000000000000000000000000000815260048101869052905173ffffffffffffffffffffffffffffffffffffffff9092169163d83b2c0591602480820192602092909190829003018186803b1580156119c657600080fd5b505afa1580156119da573d6000803e3d6000fd5b505050506040513d60208110156119f057600080fd5b50519392505050565b60025473ffffffffffffffffffffffffffffffffffffffff163314611a1d57600080fd5b73ffffffffffffffffffffffffffffffffffffffff81161515611a3f57600080fd5b60025460405173ffffffffffffffffffffffffffffffffffffffff8084169216907f8be0079c531659141344cd1fd0a4f28419497f9722a3daafe3b4186f6b6457e090600090a3600280547fffffffffffffffffffffffff00000000000000000000000000000000000000001673ffffffffffffffffffffffffffffffffffffffff92909216919091179055565b600154604080517f024e54df000000000000000000000000000000000000000000000000000000008152336004820152905160009273ffffffffffffffffffffffffffffffffffffffff169163024e54df916024808301926020929190829003018186803b158015610ee957600080fdfea165627a7a723058206ace17becfafc59d1222b6c8cf57041511b920cdb3e861045d0cf3b8bf9f092c0029",
  "source": "pragma solidity >=0.4.24 <0.6.0;\n\nimport \"../state/StorageState.sol\";\nimport \"../permission/Ownable.sol\";\n\ncontract ElectionContract is StorageState, Ownable {\n\n    event NewCandidateEvent(uint id, string name, string partyName, string logoParty, string imageUrl);\n    event VoteCandidateEvent(uint id, string name, string partyName, string logoParty, string imageUrl, uint voteCount);\n\n    modifier onlyManager() {\n        require(msg.sender == owner, \"Sorry!, This function for manager only\");\n        _;\n    }\n\n    modifier requireCandidate(uint _candidateId) {\n        require(_candidateId > 0 && _candidateId <= candidateStorage.getCount(), \"System not found this candidate id\");\n        _;\n    }\n\n    modifier requireVote() {\n        require(!(voterStorage.isUserVoted(msg.sender)), \"This account already vote\");\n        _;\n    }\n\n    modifier requireVoter(uint voterId) {\n        require(voterId < voterStorage.getCountVoter(), \"System not found this voter id\");\n        _;\n    }\n\n    function addCandidate(\n        string memory _name,\n        string memory _partyName,\n        string memory _logoParty,\n        string memory _imageUrl\n    ) public onlyManager {\n        (uint id) = candidateStorage.setCandidate(_name, _partyName, _logoParty, _imageUrl);\n        emit NewCandidateEvent(id, _name, _partyName, _logoParty, _imageUrl);\n    }\n\n    function getTotalCandidate() public view returns (uint) {\n        return candidateStorage.getCount();\n    }\n\n    function getCandidate(uint id) public requireCandidate(id) \n    view returns (uint, string memory, string memory, string memory, string memory, uint) {\n        return candidateStorage.getCandidate(id);\n    }\n\n    function vote(uint _candidateId) public requireVote() requireCandidate(_candidateId) {\n        voterStorage.setUserVote(msg.sender, _candidateId);\n        candidateStorage.updateVoteCount(_candidateId);\n        (uint id, \n        string memory name,\n        string memory partyName,\n        string memory partyLogo,\n        string memory imageUrl, \n        uint voteCount\n        ) = candidateStorage.getCandidate(_candidateId);\n        emit VoteCandidateEvent(id, name, partyName, partyLogo, imageUrl, voteCount);\n    }\n\n    function getTotalVoter() public view returns (uint total) {\n        return voterStorage.getCountVoter();\n    }\n\n    function getVoter(uint id) public requireVoter(id) view returns (address) {\n        return voterStorage.getVoterAddress(id);\n    }\n\n    function checkUserCanVote() public view returns (bool) {\n        return !(voterStorage.isUserVoted(msg.sender));\n    }\n\n    function getVoterVotedCandidate() public view returns (uint candidateId) {\n        return voterStorage.getVoterMapCandidate(msg.sender);\n    }\n}",
  "sourcePath": "/Users/jedsada/Documents/development/election-smart-contract/contracts/app/ElectionContract.sol",
  "compiler": {
    "name": "solc",
    "version": "0.5.0+commit.1d4f565a.Emscripten.clang"
  },
  "schemaVersion": "3.0.6",
  "updatedAt": "2019-05-23T17:22:55.431Z",
  "devdoc": {
    "methods": {}
  },
  "userdoc": {
    "methods": {}
  }
}