{
  "contractName": "ElectionContract",
  "abi": [
    {
      "constant": true,
      "inputs": [],
      "name": "owner",
      "outputs": [
        {
          "name": "",
          "type": "address"
        }
      ],
      "payable": false,
      "stateMutability": "view",
      "type": "function",
      "signature": "0x8da5cb5b"
    },
    {
      "constant": true,
      "inputs": [],
      "name": "voterStorage",
      "outputs": [
        {
          "name": "",
          "type": "address"
        }
      ],
      "payable": false,
      "stateMutability": "view",
      "type": "function",
      "signature": "0x95c562cb"
    },
    {
      "constant": true,
      "inputs": [],
      "name": "candidateStorage",
      "outputs": [
        {
          "name": "",
          "type": "address"
        }
      ],
      "payable": false,
      "stateMutability": "view",
      "type": "function",
      "signature": "0x9de5d621"
    },
    {
      "constant": false,
      "inputs": [
        {
          "name": "newOwner",
          "type": "address"
        }
      ],
      "name": "transferOwnership",
      "outputs": [],
      "payable": false,
      "stateMutability": "nonpayable",
      "type": "function",
      "signature": "0xf2fde38b"
    },
    {
      "anonymous": false,
      "inputs": [
        {
          "indexed": false,
          "name": "id",
          "type": "uint256"
        },
        {
          "indexed": false,
          "name": "name",
          "type": "string"
        },
        {
          "indexed": false,
          "name": "imageUrl",
          "type": "string"
        }
      ],
      "name": "NewCandidateEvent",
      "type": "event",
      "signature": "0x789f4a603f8b60b164c7e0f4c280a8e2439436b310937526861f5c607db62ce0"
    },
    {
      "anonymous": false,
      "inputs": [
        {
          "indexed": false,
          "name": "id",
          "type": "uint256"
        },
        {
          "indexed": false,
          "name": "name",
          "type": "string"
        },
        {
          "indexed": false,
          "name": "imageUrl",
          "type": "string"
        },
        {
          "indexed": false,
          "name": "voteCount",
          "type": "uint256"
        }
      ],
      "name": "VoteCandidateEvent",
      "type": "event",
      "signature": "0x75a93a8bca2fc03e1170897fc49c4b300a3014f639692f670db343a3edd47198"
    },
    {
      "anonymous": false,
      "inputs": [
        {
          "indexed": true,
          "name": "previousOwner",
          "type": "address"
        },
        {
          "indexed": true,
          "name": "newOwner",
          "type": "address"
        }
      ],
      "name": "OwnershipTransferred",
      "type": "event",
      "signature": "0x8be0079c531659141344cd1fd0a4f28419497f9722a3daafe3b4186f6b6457e0"
    },
    {
      "constant": false,
      "inputs": [
        {
          "name": "_name",
          "type": "string"
        },
        {
          "name": "_imageUrl",
          "type": "string"
        }
      ],
      "name": "addCandidate",
      "outputs": [],
      "payable": false,
      "stateMutability": "nonpayable",
      "type": "function",
      "signature": "0x26541b56"
    },
    {
      "constant": true,
      "inputs": [],
      "name": "getTotalCandidate",
      "outputs": [
        {
          "name": "",
          "type": "uint256"
        }
      ],
      "payable": false,
      "stateMutability": "view",
      "type": "function",
      "signature": "0x64d198a1"
    },
    {
      "constant": true,
      "inputs": [
        {
          "name": "id",
          "type": "uint256"
        }
      ],
      "name": "getCandidate",
      "outputs": [
        {
          "name": "",
          "type": "uint256"
        },
        {
          "name": "",
          "type": "string"
        },
        {
          "name": "",
          "type": "string"
        },
        {
          "name": "",
          "type": "uint256"
        }
      ],
      "payable": false,
      "stateMutability": "view",
      "type": "function",
      "signature": "0x35b8e820"
    },
    {
      "constant": false,
      "inputs": [
        {
          "name": "_candidateId",
          "type": "uint256"
        }
      ],
      "name": "vote",
      "outputs": [],
      "payable": false,
      "stateMutability": "nonpayable",
      "type": "function",
      "signature": "0x0121b93f"
    },
    {
      "constant": true,
      "inputs": [],
      "name": "getTotalVoter",
      "outputs": [
        {
          "name": "total",
          "type": "uint256"
        }
      ],
      "payable": false,
      "stateMutability": "view",
      "type": "function",
      "signature": "0x0b93400e"
    },
    {
      "constant": true,
      "inputs": [
        {
          "name": "id",
          "type": "uint256"
        }
      ],
      "name": "getVoter",
      "outputs": [
        {
          "name": "",
          "type": "address"
        }
      ],
      "payable": false,
      "stateMutability": "view",
      "type": "function",
      "signature": "0xd07bff0c"
    }
  ],
  "bytecode": "0x608060405260028054600160a060020a0319163317905561143a806100256000396000f3fe6080604052600436106100a35763ffffffff7c01000000000000000000000000000000000000000000000000000000006000350416630121b93f81146100a85780630b93400e146100d457806326541b56146100fb57806335b8e8201461023557806364d198a11461034b5780638da5cb5b1461036057806395c562cb1461039e5780639de5d621146103b3578063d07bff0c146103c8578063f2fde38b146103f2575b600080fd5b3480156100b457600080fd5b506100d2600480360360208110156100cb57600080fd5b5035610432565b005b3480156100e057600080fd5b506100e9610a20565b60408051918252519081900360200190f35b34801561010757600080fd5b506100d26004803603604081101561011e57600080fd5b81019060208101813564010000000081111561013957600080fd5b82018360208201111561014b57600080fd5b8035906020019184600183028401116401000000008311171561016d57600080fd5b91908080601f01602080910402602001604051908101604052809392919081815260200183838082843760009201919091525092959493602081019350359150506401000000008111156101c057600080fd5b8201836020820111156101d257600080fd5b803590602001918460018302840111640100000000831117156101f457600080fd5b91908080601f016020809104026020016040519081016040528093929190818152602001838380828437600092019190915250929550610abc945050505050565b34801561024157600080fd5b5061025f6004803603602081101561025857600080fd5b5035610de6565b604051808581526020018060200180602001848152602001838103835286818151815260200191508051906020019080838360005b838110156102ac578181015183820152602001610294565b50505050905090810190601f1680156102d95780820380516001836020036101000a031916815260200191505b50838103825285518152855160209182019187019080838360005b8381101561030c5781810151838201526020016102f4565b50505050905090810190601f1680156103395780820380516001836020036101000a031916815260200191505b50965050505050505060405180910390f35b34801561035757600080fd5b506100e961109c565b34801561036c57600080fd5b50610375611121565b6040805173ffffffffffffffffffffffffffffffffffffffff9092168252519081900360200190f35b3480156103aa57600080fd5b5061037561113d565b3480156103bf57600080fd5b50610375611159565b3480156103d457600080fd5b50610375600480360360208110156103eb57600080fd5b5035611175565b3480156103fe57600080fd5b506100d26004803603602081101561041557600080fd5b503573ffffffffffffffffffffffffffffffffffffffff1661133a565b600154604080517f6231bb05000000000000000000000000000000000000000000000000000000008152336004820152905173ffffffffffffffffffffffffffffffffffffffff90921691636231bb0591602480820192602092909190829003018186803b1580156104a357600080fd5b505afa1580156104b7573d6000803e3d6000fd5b505050506040513d60208110156104cd57600080fd5b50511561053b57604080517f08c379a000000000000000000000000000000000000000000000000000000000815260206004820152601960248201527f54686973206163636f756e7420616c726561647920766f746500000000000000604482015290519081900360640190fd5b806000811180156105fa57506000809054906101000a900473ffffffffffffffffffffffffffffffffffffffff1673ffffffffffffffffffffffffffffffffffffffff1663a87d942c6040518163ffffffff167c010000000000000000000000000000000000000000000000000000000002815260040160206040518083038186803b1580156105ca57600080fd5b505afa1580156105de573d6000803e3d6000fd5b505050506040513d60208110156105f457600080fd5b50518111155b151561068d57604080517f08c379a000000000000000000000000000000000000000000000000000000000815260206004820152602260248201527f53797374656d206e6f7420666f756e6420746869732063616e6469646174652060448201527f6964000000000000000000000000000000000000000000000000000000000000606482015290519081900360840190fd5b600154604080517fb2d9c8fe000000000000000000000000000000000000000000000000000000008152336004820152905173ffffffffffffffffffffffffffffffffffffffff9092169163b2d9c8fe9160248082019260009290919082900301818387803b1580156106ff57600080fd5b505af1158015610713573d6000803e3d6000fd5b505060008054604080517f2cddc81d00000000000000000000000000000000000000000000000000000000815260048101889052905173ffffffffffffffffffffffffffffffffffffffff9092169450632cddc81d9350602480820193929182900301818387803b15801561078757600080fd5b505af115801561079b573d6000803e3d6000fd5b505060008054604080517f35b8e820000000000000000000000000000000000000000000000000000000008152600481018890529051929450606093508392859273ffffffffffffffffffffffffffffffffffffffff16916335b8e8209160248083019286929190829003018186803b15801561081757600080fd5b505afa15801561082b573d6000803e3d6000fd5b505050506040513d6000823e601f3d908101601f19168201604052608081101561085457600080fd5b81516020830180519193928301929164010000000081111561087557600080fd5b8201602081018481111561088857600080fd5b81516401000000008111828201871017156108a257600080fd5b505092919060200180516401000000008111156108be57600080fd5b820160208101848111156108d157600080fd5b81516401000000008111828201871017156108eb57600080fd5b50509291906020018051906020019092919050505093509350935093507f75a93a8bca2fc03e1170897fc49c4b300a3014f639692f670db343a3edd4719884848484604051808581526020018060200180602001848152602001838103835286818151815260200191508051906020019080838360005b8381101561097a578181015183820152602001610962565b50505050905090810190601f1680156109a75780820380516001836020036101000a031916815260200191505b50838103825285518152855160209182019187019080838360005b838110156109da5781810151838201526020016109c2565b50505050905090810190601f168015610a075780820380516001836020036101000a031916815260200191505b50965050505050505060405180910390a1505050505050565b600154604080517ff10ba0fe000000000000000000000000000000000000000000000000000000008152905160009273ffffffffffffffffffffffffffffffffffffffff169163f10ba0fe916004808301926020929190829003018186803b158015610a8b57600080fd5b505afa158015610a9f573d6000803e3d6000fd5b505050506040513d6020811015610ab557600080fd5b5051905090565b60025473ffffffffffffffffffffffffffffffffffffffff163314610b6857604080517f08c379a000000000000000000000000000000000000000000000000000000000815260206004820152602660248201527f536f727279212c20546869732066756e6374696f6e20666f72206d616e61676560448201527f72206f6e6c790000000000000000000000000000000000000000000000000000606482015290519081900360840190fd5b60008054604080517f0f3919c70000000000000000000000000000000000000000000000000000000081526004810191825285516044820152855173ffffffffffffffffffffffffffffffffffffffff90931692630f3919c792879287928291602481019160649091019060208701908083838d5b83811015610bf5578181015183820152602001610bdd565b50505050905090810190601f168015610c225780820380516001836020036101000a031916815260200191505b50838103825284518152845160209182019186019080838360005b83811015610c55578181015183820152602001610c3d565b50505050905090810190601f168015610c825780820380516001836020036101000a031916815260200191505b50945050505050602060405180830381600087803b158015610ca357600080fd5b505af1158015610cb7573d6000803e3d6000fd5b505050506040513d6020811015610ccd57600080fd5b5051604080518281526060602082810182815288519284019290925287519495507f789f4a603f8b60b164c7e0f4c280a8e2439436b310937526861f5c607db62ce0948694899489949093909291840191608085019187019080838360005b83811015610d44578181015183820152602001610d2c565b50505050905090810190601f168015610d715780820380516001836020036101000a031916815260200191505b50838103825284518152845160209182019186019080838360005b83811015610da4578181015183820152602001610d8c565b50505050905090810190601f168015610dd15780820380516001836020036101000a031916815260200191505b509550505050505060405180910390a1505050565b6000606080600084600081118015610eac57506000809054906101000a900473ffffffffffffffffffffffffffffffffffffffff1673ffffffffffffffffffffffffffffffffffffffff1663a87d942c6040518163ffffffff167c010000000000000000000000000000000000000000000000000000000002815260040160206040518083038186803b158015610e7c57600080fd5b505afa158015610e90573d6000803e3d6000fd5b505050506040513d6020811015610ea657600080fd5b50518111155b1515610f3f57604080517f08c379a000000000000000000000000000000000000000000000000000000000815260206004820152602260248201527f53797374656d206e6f7420666f756e6420746869732063616e6469646174652060448201527f6964000000000000000000000000000000000000000000000000000000000000606482015290519081900360840190fd5b60008054604080517f35b8e820000000000000000000000000000000000000000000000000000000008152600481018a9052905173ffffffffffffffffffffffffffffffffffffffff909216926335b8e82092602480840193829003018186803b158015610fac57600080fd5b505afa158015610fc0573d6000803e3d6000fd5b505050506040513d6000823e601f3d908101601f191682016040526080811015610fe957600080fd5b81516020830180519193928301929164010000000081111561100a57600080fd5b8201602081018481111561101d57600080fd5b815164010000000081118282018710171561103757600080fd5b5050929190602001805164010000000081111561105357600080fd5b8201602081018481111561106657600080fd5b815164010000000081118282018710171561108057600080fd5b505060209190910151949b939a50985092965090945050505050565b60008060009054906101000a900473ffffffffffffffffffffffffffffffffffffffff1673ffffffffffffffffffffffffffffffffffffffff1663a87d942c6040518163ffffffff167c010000000000000000000000000000000000000000000000000000000002815260040160206040518083038186803b158015610a8b57600080fd5b60025473ffffffffffffffffffffffffffffffffffffffff1681565b60015473ffffffffffffffffffffffffffffffffffffffff1681565b60005473ffffffffffffffffffffffffffffffffffffffff1681565b600081600160009054906101000a900473ffffffffffffffffffffffffffffffffffffffff1673ffffffffffffffffffffffffffffffffffffffff1663f10ba0fe6040518163ffffffff167c010000000000000000000000000000000000000000000000000000000002815260040160206040518083038186803b1580156111fc57600080fd5b505afa158015611210573d6000803e3d6000fd5b505050506040513d602081101561122657600080fd5b5051811061129557604080517f08c379a000000000000000000000000000000000000000000000000000000000815260206004820152601e60248201527f53797374656d206e6f7420666f756e64207468697320766f7465722069640000604482015290519081900360640190fd5b600154604080517fd83b2c0500000000000000000000000000000000000000000000000000000000815260048101869052905173ffffffffffffffffffffffffffffffffffffffff9092169163d83b2c0591602480820192602092909190829003018186803b15801561130757600080fd5b505afa15801561131b573d6000803e3d6000fd5b505050506040513d602081101561133157600080fd5b50519392505050565b60025473ffffffffffffffffffffffffffffffffffffffff16331461135e57600080fd5b73ffffffffffffffffffffffffffffffffffffffff8116151561138057600080fd5b60025460405173ffffffffffffffffffffffffffffffffffffffff8084169216907f8be0079c531659141344cd1fd0a4f28419497f9722a3daafe3b4186f6b6457e090600090a3600280547fffffffffffffffffffffffff00000000000000000000000000000000000000001673ffffffffffffffffffffffffffffffffffffffff9290921691909117905556fea165627a7a72305820dec5c5c87f72274b3945d3d3940616361e3c6eb04ff0f868a5f1e67ff0ee589d0029",
  "source": "pragma solidity >=0.4.24 <0.6.0;\n\nimport \"../state/StorageState.sol\";\nimport \"../permission/Ownable.sol\";\n\ncontract ElectionContract is StorageState, Ownable {\n\n    event NewCandidateEvent(uint id, string name, string imageUrl);\n    event VoteCandidateEvent(uint id, string name, string imageUrl, uint voteCount);\n\n    modifier onlyManager() {\n        require(msg.sender == owner, \"Sorry!, This function for manager only\");\n        _;\n    }\n\n    modifier requireCandidate(uint _candidateId) {\n        require(_candidateId > 0 && _candidateId <= candidateStorage.getCount(), \"System not found this candidate id\");\n        _;\n    }\n\n    modifier requireVote() {\n        require(!(voterStorage.isUserVoted(msg.sender)), \"This account already vote\");\n        _;\n    }\n\n    modifier requireVoter(uint voterId) {\n        require(voterId < voterStorage.getCountVoter(), \"System not found this voter id\");\n        _;\n    }\n\n    function addCandidate(string memory _name, string memory _imageUrl) public onlyManager {\n        (uint id) = candidateStorage.setCandidate(_name, _imageUrl);\n        emit NewCandidateEvent(id, _name, _imageUrl);\n    }\n\n    function getTotalCandidate() public view returns (uint) {\n        return candidateStorage.getCount();\n    }\n\n    function getCandidate(uint id) public requireCandidate(id) view returns (uint, string memory, string memory, uint) {\n        return candidateStorage.getCandidate(id);\n    }\n\n    function vote(uint _candidateId) public requireVote() requireCandidate(_candidateId) {\n        voterStorage.setUserVote(msg.sender);\n        candidateStorage.updateVoteCount(_candidateId);\n        (uint id, string memory name, string memory imageUrl, uint voteCount) = candidateStorage.getCandidate(_candidateId);\n        emit VoteCandidateEvent(id, name, imageUrl, voteCount);\n    }\n\n    function getTotalVoter() public view returns (uint total) {\n        return voterStorage.getCountVoter();\n    }\n\n    function getVoter(uint id) public requireVoter(id) view returns (address) {\n        return voterStorage.getVoterAddress(id);\n    }\n}",
  "sourcePath": "/Users/jedsada/Documents/development/election-smart-contract/contracts/app/ElectionContract.sol",
  "compiler": {
    "name": "solc",
    "version": "0.5.0+commit.1d4f565a.Emscripten.clang"
  },
  "schemaVersion": "3.0.6",
  "updatedAt": "2019-05-07T11:27:15.211Z",
  "devdoc": {
    "methods": {}
  },
  "userdoc": {
    "methods": {}
  }
}