{
  "contractName": "ElectionContract",
  "abi": [
    {
      "constant": true,
      "inputs": [],
      "name": "owner",
      "outputs": [
        {
          "name": "",
          "type": "address"
        }
      ],
      "payable": false,
      "stateMutability": "view",
      "type": "function",
      "signature": "0x8da5cb5b"
    },
    {
      "constant": true,
      "inputs": [],
      "name": "voterStorage",
      "outputs": [
        {
          "name": "",
          "type": "address"
        }
      ],
      "payable": false,
      "stateMutability": "view",
      "type": "function",
      "signature": "0x95c562cb"
    },
    {
      "constant": true,
      "inputs": [],
      "name": "candidateStorage",
      "outputs": [
        {
          "name": "",
          "type": "address"
        }
      ],
      "payable": false,
      "stateMutability": "view",
      "type": "function",
      "signature": "0x9de5d621"
    },
    {
      "constant": false,
      "inputs": [
        {
          "name": "newOwner",
          "type": "address"
        }
      ],
      "name": "transferOwnership",
      "outputs": [],
      "payable": false,
      "stateMutability": "nonpayable",
      "type": "function",
      "signature": "0xf2fde38b"
    },
    {
      "anonymous": false,
      "inputs": [
        {
          "indexed": false,
          "name": "id",
          "type": "uint256"
        },
        {
          "indexed": false,
          "name": "name",
          "type": "string"
        },
        {
          "indexed": false,
          "name": "partyName",
          "type": "string"
        },
        {
          "indexed": false,
          "name": "logoParty",
          "type": "string"
        },
        {
          "indexed": false,
          "name": "imageUrl",
          "type": "string"
        }
      ],
      "name": "NewCandidateEvent",
      "type": "event",
      "signature": "0xf6a87ec8981d8ec6f524bcfae6797b8baed5a27aede51bccfc68e5ac6ba384c0"
    },
    {
      "anonymous": false,
      "inputs": [
        {
          "indexed": false,
          "name": "id",
          "type": "uint256"
        },
        {
          "indexed": false,
          "name": "name",
          "type": "string"
        },
        {
          "indexed": false,
          "name": "partyName",
          "type": "string"
        },
        {
          "indexed": false,
          "name": "logoParty",
          "type": "string"
        },
        {
          "indexed": false,
          "name": "imageUrl",
          "type": "string"
        },
        {
          "indexed": false,
          "name": "voteCount",
          "type": "uint256"
        }
      ],
      "name": "VoteCandidateEvent",
      "type": "event",
      "signature": "0xefd4d1551e59e77594662e5a530cc7507704f74310bc4f85a7542426c2467cf5"
    },
    {
      "anonymous": false,
      "inputs": [
        {
          "indexed": true,
          "name": "previousOwner",
          "type": "address"
        },
        {
          "indexed": true,
          "name": "newOwner",
          "type": "address"
        }
      ],
      "name": "OwnershipTransferred",
      "type": "event",
      "signature": "0x8be0079c531659141344cd1fd0a4f28419497f9722a3daafe3b4186f6b6457e0"
    },
    {
      "constant": false,
      "inputs": [
        {
          "name": "_name",
          "type": "string"
        },
        {
          "name": "_partyName",
          "type": "string"
        },
        {
          "name": "_logoParty",
          "type": "string"
        },
        {
          "name": "_imageUrl",
          "type": "string"
        }
      ],
      "name": "addCandidate",
      "outputs": [],
      "payable": false,
      "stateMutability": "nonpayable",
      "type": "function",
      "signature": "0x42b03cc9"
    },
    {
      "constant": true,
      "inputs": [],
      "name": "getTotalCandidate",
      "outputs": [
        {
          "name": "",
          "type": "uint256"
        }
      ],
      "payable": false,
      "stateMutability": "view",
      "type": "function",
      "signature": "0x64d198a1"
    },
    {
      "constant": true,
      "inputs": [
        {
          "name": "id",
          "type": "uint256"
        }
      ],
      "name": "getCandidate",
      "outputs": [
        {
          "name": "",
          "type": "uint256"
        },
        {
          "name": "",
          "type": "string"
        },
        {
          "name": "",
          "type": "string"
        },
        {
          "name": "",
          "type": "string"
        },
        {
          "name": "",
          "type": "string"
        },
        {
          "name": "",
          "type": "uint256"
        }
      ],
      "payable": false,
      "stateMutability": "view",
      "type": "function",
      "signature": "0x35b8e820"
    },
    {
      "constant": false,
      "inputs": [
        {
          "name": "_candidateId",
          "type": "uint256"
        }
      ],
      "name": "vote",
      "outputs": [],
      "payable": false,
      "stateMutability": "nonpayable",
      "type": "function",
      "signature": "0x0121b93f"
    },
    {
      "constant": true,
      "inputs": [],
      "name": "getTotalVoter",
      "outputs": [
        {
          "name": "total",
          "type": "uint256"
        }
      ],
      "payable": false,
      "stateMutability": "view",
      "type": "function",
      "signature": "0x0b93400e"
    },
    {
      "constant": true,
      "inputs": [
        {
          "name": "id",
          "type": "uint256"
        }
      ],
      "name": "getVoter",
      "outputs": [
        {
          "name": "",
          "type": "address"
        }
      ],
      "payable": false,
      "stateMutability": "view",
      "type": "function",
      "signature": "0xd07bff0c"
    },
    {
      "constant": true,
      "inputs": [],
      "name": "checkUserCanVote",
      "outputs": [
        {
          "name": "",
          "type": "bool"
        }
      ],
      "payable": false,
      "stateMutability": "view",
      "type": "function",
      "signature": "0x070fa866"
    }
  ],
  "bytecode": "0x608060405260028054600160a060020a03191633179055611ad2806100256000396000f3fe6080604052600436106100ae5763ffffffff7c01000000000000000000000000000000000000000000000000000000006000350416630121b93f81146100b3578063070fa866146100df5780630b93400e1461010857806335b8e8201461012f57806342b03cc91461031157806364d198a1146105595780638da5cb5b1461056e57806395c562cb146105ac5780639de5d621146105c1578063d07bff0c146105d6578063f2fde38b14610600575b600080fd5b3480156100bf57600080fd5b506100dd600480360360208110156100d657600080fd5b5035610640565b005b3480156100eb57600080fd5b506100f4610db4565b604080519115158252519081900360200190f35b34801561011457600080fd5b5061011d610e57565b60408051918252519081900360200190f35b34801561013b57600080fd5b506101596004803603602081101561015257600080fd5b5035610ef3565b604051808781526020018060200180602001806020018060200186815260200185810385528a818151815260200191508051906020019080838360005b838110156101ae578181015183820152602001610196565b50505050905090810190601f1680156101db5780820380516001836020036101000a031916815260200191505b5085810384528951815289516020918201918b019080838360005b8381101561020e5781810151838201526020016101f6565b50505050905090810190601f16801561023b5780820380516001836020036101000a031916815260200191505b5085810383528851815288516020918201918a019080838360005b8381101561026e578181015183820152602001610256565b50505050905090810190601f16801561029b5780820380516001836020036101000a031916815260200191505b50858103825287518152875160209182019189019080838360005b838110156102ce5781810151838201526020016102b6565b50505050905090810190601f1680156102fb5780820380516001836020036101000a031916815260200191505b509a505050505050505050505060405180910390f35b34801561031d57600080fd5b506100dd6004803603608081101561033457600080fd5b81019060208101813564010000000081111561034f57600080fd5b82018360208201111561036157600080fd5b8035906020019184600183028401116401000000008311171561038357600080fd5b91908080601f01602080910402602001604051908101604052809392919081815260200183838082843760009201919091525092959493602081019350359150506401000000008111156103d657600080fd5b8201836020820111156103e857600080fd5b8035906020019184600183028401116401000000008311171561040a57600080fd5b91908080601f016020809104026020016040519081016040528093929190818152602001838380828437600092019190915250929594936020810193503591505064010000000081111561045d57600080fd5b82018360208201111561046f57600080fd5b8035906020019184600183028401116401000000008311171561049157600080fd5b91908080601f01602080910402602001604051908101604052809392919081815260200183838082843760009201919091525092959493602081019350359150506401000000008111156104e457600080fd5b8201836020820111156104f657600080fd5b8035906020019184600183028401116401000000008311171561051857600080fd5b91908080601f016020809104026020016040519081016040528093929190818152602001838380828437600092019190915250929550611245945050505050565b34801561056557600080fd5b5061011d611734565b34801561057a57600080fd5b506105836117b9565b6040805173ffffffffffffffffffffffffffffffffffffffff9092168252519081900360200190f35b3480156105b857600080fd5b506105836117d5565b3480156105cd57600080fd5b506105836117f1565b3480156105e257600080fd5b50610583600480360360208110156105f957600080fd5b503561180d565b34801561060c57600080fd5b506100dd6004803603602081101561062357600080fd5b503573ffffffffffffffffffffffffffffffffffffffff166119d2565b600154604080517f6231bb05000000000000000000000000000000000000000000000000000000008152336004820152905173ffffffffffffffffffffffffffffffffffffffff90921691636231bb0591602480820192602092909190829003018186803b1580156106b157600080fd5b505afa1580156106c5573d6000803e3d6000fd5b505050506040513d60208110156106db57600080fd5b50511561074957604080517f08c379a000000000000000000000000000000000000000000000000000000000815260206004820152601960248201527f54686973206163636f756e7420616c726561647920766f746500000000000000604482015290519081900360640190fd5b8060008111801561080857506000809054906101000a900473ffffffffffffffffffffffffffffffffffffffff1673ffffffffffffffffffffffffffffffffffffffff1663a87d942c6040518163ffffffff167c010000000000000000000000000000000000000000000000000000000002815260040160206040518083038186803b1580156107d857600080fd5b505afa1580156107ec573d6000803e3d6000fd5b505050506040513d602081101561080257600080fd5b50518111155b151561089b57604080517f08c379a000000000000000000000000000000000000000000000000000000000815260206004820152602260248201527f53797374656d206e6f7420666f756e6420746869732063616e6469646174652060448201527f6964000000000000000000000000000000000000000000000000000000000000606482015290519081900360840190fd5b600154604080517fb2d9c8fe000000000000000000000000000000000000000000000000000000008152336004820152905173ffffffffffffffffffffffffffffffffffffffff9092169163b2d9c8fe9160248082019260009290919082900301818387803b15801561090d57600080fd5b505af1158015610921573d6000803e3d6000fd5b505060008054604080517f2cddc81d00000000000000000000000000000000000000000000000000000000815260048101889052905173ffffffffffffffffffffffffffffffffffffffff9092169450632cddc81d9350602480820193929182900301818387803b15801561099557600080fd5b505af11580156109a9573d6000803e3d6000fd5b50505050600060608060608060008060009054906101000a900473ffffffffffffffffffffffffffffffffffffffff1673ffffffffffffffffffffffffffffffffffffffff166335b8e820896040518263ffffffff167c01000000000000000000000000000000000000000000000000000000000281526004018082815260200191505060006040518083038186803b158015610a4557600080fd5b505afa158015610a59573d6000803e3d6000fd5b505050506040513d6000823e601f3d908101601f1916820160405260c0811015610a8257600080fd5b815160208301805191939283019291640100000000811115610aa357600080fd5b82016020810184811115610ab657600080fd5b8151640100000000811182820187101715610ad057600080fd5b50509291906020018051640100000000811115610aec57600080fd5b82016020810184811115610aff57600080fd5b8151640100000000811182820187101715610b1957600080fd5b50509291906020018051640100000000811115610b3557600080fd5b82016020810184811115610b4857600080fd5b8151640100000000811182820187101715610b6257600080fd5b50509291906020018051640100000000811115610b7e57600080fd5b82016020810184811115610b9157600080fd5b8151640100000000811182820187101715610bab57600080fd5b5050929190602001805190602001909291905050509550955095509550955095507fefd4d1551e59e77594662e5a530cc7507704f74310bc4f85a7542426c2467cf5868686868686604051808781526020018060200180602001806020018060200186815260200185810385528a818151815260200191508051906020019080838360005b83811015610c48578181015183820152602001610c30565b50505050905090810190601f168015610c755780820380516001836020036101000a031916815260200191505b5085810384528951815289516020918201918b019080838360005b83811015610ca8578181015183820152602001610c90565b50505050905090810190601f168015610cd55780820380516001836020036101000a031916815260200191505b5085810383528851815288516020918201918a019080838360005b83811015610d08578181015183820152602001610cf0565b50505050905090810190601f168015610d355780820380516001836020036101000a031916815260200191505b50858103825287518152875160209182019189019080838360005b83811015610d68578181015183820152602001610d50565b50505050905090810190601f168015610d955780820380516001836020036101000a031916815260200191505b509a505050505050505050505060405180910390a15050505050505050565b600154604080517f6231bb05000000000000000000000000000000000000000000000000000000008152336004820152905160009273ffffffffffffffffffffffffffffffffffffffff1691636231bb05916024808301926020929190829003018186803b158015610e2557600080fd5b505afa158015610e39573d6000803e3d6000fd5b505050506040513d6020811015610e4f57600080fd5b505115905090565b600154604080517ff10ba0fe000000000000000000000000000000000000000000000000000000008152905160009273ffffffffffffffffffffffffffffffffffffffff169163f10ba0fe916004808301926020929190829003018186803b158015610ec257600080fd5b505afa158015610ed6573d6000803e3d6000fd5b505050506040513d6020811015610eec57600080fd5b5051905090565b6000606080606080600086600081118015610fbc57506000809054906101000a900473ffffffffffffffffffffffffffffffffffffffff1673ffffffffffffffffffffffffffffffffffffffff1663a87d942c6040518163ffffffff167c010000000000000000000000000000000000000000000000000000000002815260040160206040518083038186803b158015610f8c57600080fd5b505afa158015610fa0573d6000803e3d6000fd5b505050506040513d6020811015610fb657600080fd5b50518111155b151561104f57604080517f08c379a000000000000000000000000000000000000000000000000000000000815260206004820152602260248201527f53797374656d206e6f7420666f756e6420746869732063616e6469646174652060448201527f6964000000000000000000000000000000000000000000000000000000000000606482015290519081900360840190fd5b60008054604080517f35b8e820000000000000000000000000000000000000000000000000000000008152600481018c9052905173ffffffffffffffffffffffffffffffffffffffff909216926335b8e82092602480840193829003018186803b1580156110bc57600080fd5b505afa1580156110d0573d6000803e3d6000fd5b505050506040513d6000823e601f3d908101601f1916820160405260c08110156110f957600080fd5b81516020830180519193928301929164010000000081111561111a57600080fd5b8201602081018481111561112d57600080fd5b815164010000000081118282018710171561114757600080fd5b5050929190602001805164010000000081111561116357600080fd5b8201602081018481111561117657600080fd5b815164010000000081118282018710171561119057600080fd5b505092919060200180516401000000008111156111ac57600080fd5b820160208101848111156111bf57600080fd5b81516401000000008111828201871017156111d957600080fd5b505092919060200180516401000000008111156111f557600080fd5b8201602081018481111561120857600080fd5b815164010000000081118282018710171561122257600080fd5b505060209190910151969f959e50939c50919a5091985092965090945050505050565b60025473ffffffffffffffffffffffffffffffffffffffff1633146112f157604080517f08c379a000000000000000000000000000000000000000000000000000000000815260206004820152602660248201527f536f727279212c20546869732066756e6374696f6e20666f72206d616e61676560448201527f72206f6e6c790000000000000000000000000000000000000000000000000000606482015290519081900360840190fd5b60008060009054906101000a900473ffffffffffffffffffffffffffffffffffffffff1673ffffffffffffffffffffffffffffffffffffffff16632a028b55868686866040518563ffffffff167c01000000000000000000000000000000000000000000000000000000000281526004018080602001806020018060200180602001858103855289818151815260200191508051906020019080838360005b838110156113a8578181015183820152602001611390565b50505050905090810190601f1680156113d55780820380516001836020036101000a031916815260200191505b5085810384528851815288516020918201918a019080838360005b838110156114085781810151838201526020016113f0565b50505050905090810190601f1680156114355780820380516001836020036101000a031916815260200191505b50858103835287518152875160209182019189019080838360005b83811015611468578181015183820152602001611450565b50505050905090810190601f1680156114955780820380516001836020036101000a031916815260200191505b50858103825286518152865160209182019188019080838360005b838110156114c85781810151838201526020016114b0565b50505050905090810190601f1680156114f55780820380516001836020036101000a031916815260200191505b5098505050505050505050602060405180830381600087803b15801561151a57600080fd5b505af115801561152e573d6000803e3d6000fd5b505050506040513d602081101561154457600080fd5b810190808051906020019092919050505090507ff6a87ec8981d8ec6f524bcfae6797b8baed5a27aede51bccfc68e5ac6ba384c081868686866040518086815260200180602001806020018060200180602001858103855289818151815260200191508051906020019080838360005b838110156115cc5781810151838201526020016115b4565b50505050905090810190601f1680156115f95780820380516001836020036101000a031916815260200191505b5085810384528851815288516020918201918a019080838360005b8381101561162c578181015183820152602001611614565b50505050905090810190601f1680156116595780820380516001836020036101000a031916815260200191505b50858103835287518152875160209182019189019080838360005b8381101561168c578181015183820152602001611674565b50505050905090810190601f1680156116b95780820380516001836020036101000a031916815260200191505b50858103825286518152865160209182019188019080838360005b838110156116ec5781810151838201526020016116d4565b50505050905090810190601f1680156117195780820380516001836020036101000a031916815260200191505b50995050505050505050505060405180910390a15050505050565b60008060009054906101000a900473ffffffffffffffffffffffffffffffffffffffff1673ffffffffffffffffffffffffffffffffffffffff1663a87d942c6040518163ffffffff167c010000000000000000000000000000000000000000000000000000000002815260040160206040518083038186803b158015610ec257600080fd5b60025473ffffffffffffffffffffffffffffffffffffffff1681565b60015473ffffffffffffffffffffffffffffffffffffffff1681565b60005473ffffffffffffffffffffffffffffffffffffffff1681565b600081600160009054906101000a900473ffffffffffffffffffffffffffffffffffffffff1673ffffffffffffffffffffffffffffffffffffffff1663f10ba0fe6040518163ffffffff167c010000000000000000000000000000000000000000000000000000000002815260040160206040518083038186803b15801561189457600080fd5b505afa1580156118a8573d6000803e3d6000fd5b505050506040513d60208110156118be57600080fd5b5051811061192d57604080517f08c379a000000000000000000000000000000000000000000000000000000000815260206004820152601e60248201527f53797374656d206e6f7420666f756e64207468697320766f7465722069640000604482015290519081900360640190fd5b600154604080517fd83b2c0500000000000000000000000000000000000000000000000000000000815260048101869052905173ffffffffffffffffffffffffffffffffffffffff9092169163d83b2c0591602480820192602092909190829003018186803b15801561199f57600080fd5b505afa1580156119b3573d6000803e3d6000fd5b505050506040513d60208110156119c957600080fd5b50519392505050565b60025473ffffffffffffffffffffffffffffffffffffffff1633146119f657600080fd5b73ffffffffffffffffffffffffffffffffffffffff81161515611a1857600080fd5b60025460405173ffffffffffffffffffffffffffffffffffffffff8084169216907f8be0079c531659141344cd1fd0a4f28419497f9722a3daafe3b4186f6b6457e090600090a3600280547fffffffffffffffffffffffff00000000000000000000000000000000000000001673ffffffffffffffffffffffffffffffffffffffff9290921691909117905556fea165627a7a723058200b8dea99d6a06cb09ad055b0e8d2c553a16c6c28e831de62eca8ad749c973d0b0029",
  "source": "pragma solidity >=0.4.24 <0.6.0;\n\nimport \"../state/StorageState.sol\";\nimport \"../permission/Ownable.sol\";\n\ncontract ElectionContract is StorageState, Ownable {\n\n    event NewCandidateEvent(uint id, string name, string partyName, string logoParty, string imageUrl);\n    event VoteCandidateEvent(uint id, string name, string partyName, string logoParty, string imageUrl, uint voteCount);\n\n    modifier onlyManager() {\n        require(msg.sender == owner, \"Sorry!, This function for manager only\");\n        _;\n    }\n\n    modifier requireCandidate(uint _candidateId) {\n        require(_candidateId > 0 && _candidateId <= candidateStorage.getCount(), \"System not found this candidate id\");\n        _;\n    }\n\n    modifier requireVote() {\n        require(!(voterStorage.isUserVoted(msg.sender)), \"This account already vote\");\n        _;\n    }\n\n    modifier requireVoter(uint voterId) {\n        require(voterId < voterStorage.getCountVoter(), \"System not found this voter id\");\n        _;\n    }\n\n    function addCandidate(\n        string memory _name,\n        string memory _partyName,\n        string memory _logoParty,\n        string memory _imageUrl\n    ) public onlyManager {\n        (uint id) = candidateStorage.setCandidate(_name, _partyName, _logoParty, _imageUrl);\n        emit NewCandidateEvent(id, _name, _partyName, _logoParty, _imageUrl);\n    }\n\n    function getTotalCandidate() public view returns (uint) {\n        return candidateStorage.getCount();\n    }\n\n    function getCandidate(uint id) public requireCandidate(id) \n    view returns (uint, string memory, string memory, string memory, string memory, uint) {\n        return candidateStorage.getCandidate(id);\n    }\n\n    function vote(uint _candidateId) public requireVote() requireCandidate(_candidateId) {\n        voterStorage.setUserVote(msg.sender);\n        candidateStorage.updateVoteCount(_candidateId);\n        (uint id, \n        string memory name,\n        string memory partyName,\n        string memory partyLogo,\n        string memory imageUrl, \n        uint voteCount\n        ) = candidateStorage.getCandidate(_candidateId);\n        emit VoteCandidateEvent(id, name, partyName, partyLogo, imageUrl, voteCount);\n    }\n\n    function getTotalVoter() public view returns (uint total) {\n        return voterStorage.getCountVoter();\n    }\n\n    function getVoter(uint id) public requireVoter(id) view returns (address) {\n        return voterStorage.getVoterAddress(id);\n    }\n\n    function checkUserCanVote() public view returns (bool) {\n        return !(voterStorage.isUserVoted(msg.sender));\n    }\n}",
  "sourcePath": "/Users/jedsada/Documents/development/election-smart-contract/contracts/app/ElectionContract.sol",
  "compiler": {
    "name": "solc",
    "version": "0.5.0+commit.1d4f565a.Emscripten.clang"
  },
  "schemaVersion": "3.0.6",
  "updatedAt": "2019-05-13T03:06:45.612Z",
  "devdoc": {
    "methods": {}
  },
  "userdoc": {
    "methods": {}
  }
}