{
  "contractName": "VoterStorage",
  "abi": [
    {
      "constant": false,
      "inputs": [
        {
          "name": "_address",
          "type": "address"
        },
        {
          "name": "_candidateId",
          "type": "uint256"
        }
      ],
      "name": "setUserVote",
      "outputs": [],
      "payable": false,
      "stateMutability": "nonpayable",
      "type": "function",
      "signature": "0xb0ae8e34"
    },
    {
      "constant": true,
      "inputs": [
        {
          "name": "_address",
          "type": "address"
        }
      ],
      "name": "isUserVoted",
      "outputs": [
        {
          "name": "",
          "type": "bool"
        }
      ],
      "payable": false,
      "stateMutability": "view",
      "type": "function",
      "signature": "0x6231bb05"
    },
    {
      "constant": true,
      "inputs": [],
      "name": "getCountVoter",
      "outputs": [
        {
          "name": "",
          "type": "uint256"
        }
      ],
      "payable": false,
      "stateMutability": "view",
      "type": "function",
      "signature": "0xf10ba0fe"
    },
    {
      "constant": true,
      "inputs": [
        {
          "name": "index",
          "type": "uint256"
        }
      ],
      "name": "getVoterAddress",
      "outputs": [
        {
          "name": "",
          "type": "address"
        }
      ],
      "payable": false,
      "stateMutability": "view",
      "type": "function",
      "signature": "0xd83b2c05"
    },
    {
      "constant": true,
      "inputs": [
        {
          "name": "_address",
          "type": "address"
        }
      ],
      "name": "getVoterMapCandidate",
      "outputs": [
        {
          "name": "candidateId",
          "type": "uint256"
        }
      ],
      "payable": false,
      "stateMutability": "view",
      "type": "function",
      "signature": "0x024e54df"
    }
  ],
  "bytecode": "0x608060405234801561001057600080fd5b5061033c806100206000396000f3fe60806040526004361061006c5763ffffffff7c0100000000000000000000000000000000000000000000000000000000600035041663024e54df81146100715780636231bb05146100c3578063b0ae8e3414610117578063d83b2c051461015f578063f10ba0fe146101b2575b600080fd5b34801561007d57600080fd5b506100b16004803603602081101561009457600080fd5b503573ffffffffffffffffffffffffffffffffffffffff166101c7565b60408051918252519081900360200190f35b3480156100cf57600080fd5b50610103600480360360208110156100e657600080fd5b503573ffffffffffffffffffffffffffffffffffffffff166101ef565b604080519115158252519081900360200190f35b34801561012357600080fd5b5061015d6004803603604081101561013a57600080fd5b5073ffffffffffffffffffffffffffffffffffffffff813516906020013561021a565b005b34801561016b57600080fd5b506101896004803603602081101561018257600080fd5b50356102d1565b6040805173ffffffffffffffffffffffffffffffffffffffff9092168252519081900360200190f35b3480156101be57600080fd5b506100b161030a565b73ffffffffffffffffffffffffffffffffffffffff1660009081526001602052604090205490565b73ffffffffffffffffffffffffffffffffffffffff1660009081526020819052604090205460ff1690565b73ffffffffffffffffffffffffffffffffffffffff90911660008181526020818152604080832080547fffffffffffffffffffffffffffffffffffffffffffffffffffffffffffffff001660019081179091559182905282209390935560028054938401815590527f405787fa12a823e0f2b7631cc41b3ba8828b3321ca811111fa75cd3aa3bb5ace90910180547fffffffffffffffffffffffff0000000000000000000000000000000000000000169091179055565b60006002828154811015156102e257fe5b60009182526020909120015473ffffffffffffffffffffffffffffffffffffffff1692915050565b6002549056fea165627a7a72305820be92dd2137fce1860e8b3c7224bf774a84d394a5f6fc0b9b34249b39f1b53c7d0029",
  "source": "pragma solidity >=0.4.24 <0.6.0;\n\ncontract VoterStorage {\n\n    mapping(address => bool) private voter;\n    mapping(address => uint) private voterMapCandidate;\n    address[] private users;\n\n    function setUserVote(address _address, uint _candidateId) public {\n        voter[_address] = true;\n        voterMapCandidate[_address] = _candidateId;\n        users.push(_address);\n    }\n\n    function isUserVoted(address _address) public view returns (bool) {\n        return voter[_address];\n    }\n\n    function getCountVoter() public view returns (uint) {\n        return users.length;\n    }\n\n    function getVoterAddress(uint index) public view returns (address) {\n        return users[index];\n    }\n\n    function getVoterMapCandidate(address _address) public view returns (uint candidateId) {\n        return voterMapCandidate[_address];\n    }\n}",
  "sourcePath": "/Users/jedsada/Documents/development/election-smart-contract/contracts/storage/VoterStorage.sol",
  "compiler": {
    "name": "solc",
    "version": "0.5.0+commit.1d4f565a.Emscripten.clang"
  },
  "schemaVersion": "3.0.6",
  "updatedAt": "2019-05-23T17:22:14.015Z",
  "devdoc": {
    "methods": {}
  },
  "userdoc": {
    "methods": {}
  }
}